:020000040800F2
:1000000000C00020013B0008513B0008513B0008A4
:10001000513B0008513B0008513B00080000000024
:100020000000000000000000000000007134000823
:10003000513B000800000000C1340008D53500081D
:10004000513B0008513B0008513B0008513B000860
:10005000513B0008513B0008513B0008513B000850
:10006000513B0008513B0008513B0008513B000840
:10007000513B0008513B0008513B0008513B000830
:10008000513B0008513B0008513B0008E13A000891
:10009000F13A0008513B0008513B0008513B000871
:1000A000513B00082D1E0008513B0008513B000841
:1000B000513B00080000000000000000513B000818
:1000C000513B00080000000000000000513B000808
:1000D00000000000513B0008513B000800000000F8
:1000E000513B0008513B00080000000000000000E8
:1000F0000000000000000000000000000000000000
:10010000000000000000000000000000513B00085B
:100110000000000000000000513B0008513B0008B7
:10012000513B0008513B0008513B0008513B00087F
:10013000513B00080000000000000000000000002B
:10014000513B0008513B0008513B0008513B00085F
:10015000513B0008513B0008513B0008513B00084F
:10016000513B0008513B0008513B000800000000D3
:10017000513B0008513B0008000000000000000057
:10018000513B0008513B0008513B000800000000B3
:100190000348044B834202D0034B03B11847704716
:1001A0004000002040000020000000000548064BF1
:1001B0001B1AD90F01EBA301491002D0034B03B165
:1001C0001847704740000020400000200000000059
:1001D00010B5064C237843B9FFF7DAFF044B13B18F
:1001E0000448AFF300800123237010BD40000020BD
:1001F00000000000C83B000808B5054B1BB10549CD
:100200000548AFF30080BDE80840FFF7CFBF00BF4F
:100210000000000044000020C83B000808B501228F
:100220004FF480714FF0904000F0AAFE4FF47A70C6
:1002300000F078F900224FF480714FF0904000F008
:100240009FFE4FF47A7000F06DF9E8E708B541F2CF
:10025000883000F067F900F05FF92C4B186001223C
:1002600008214FF0904000F08BFE01224FF4806196
:100270004FF0904000F084FE01224FF480714FF067
:10028000904000F07DFE224C01220821204600F023
:1002900077FE01224FF400714FF0904000F070FEA5
:1002A000012280214FF0904000F06AFE4FF47A70F6
:1002B00000F038F9002208214FF0904000F060FE75
:1002C00000224FF480614FF0904000F059FE002270
:1002D0004FF480714FF0904000F052FE0022082150
:1002E000204600F04DFE00224FF400714FF0904088
:1002F00000F046FE002280214FF0904000F040FECA
:100300004FF47A7000F00EF9A5E700BFB0020020AC
:100310000004004800B593B000230D930E93012212
:100320000F92089309930A930B930C9310920E214A
:1003300011911F490868102141604FF08041816090
:10034000C3604FF4702101614FF4E0014161037615
:1003500043768376C2760377427708A903F00EFBD3
:10036000012820D1124B186803F044FB01281CD14E
:1003700000230293039304930593069307930122AA
:10038000029202210691009301938DF800204FF014
:10039000FF336A4602A90648006803F033FB0228CF
:1003A000BAD0FFF73BFFFFF739FFFFF737FF00BF7A
:1003B0001400002070B588B00024039404940594C0
:1003C00006940794284BDA6C42F00402DA64DA6C83
:1003D00002F004020092009ADA6C42F00102DA6440
:1003E000DA6C02F001020192019ADA6C42F0020228
:1003F000DA64DB6C03F002030293029B224640F2B4
:1004000089714FF0904000F0BBFD184D2246082145
:10041000284600F0B5FD122303930494059403A924
:100420004FF0904000F0D4FC40F289730393012612
:1004300004960594069403A94FF0904000F0C8FC80
:100440000823039304960594069403A9284600F014
:10045000BFFC312303930494059403A9284600F0BC
:10046000B7FC08B070BD00BF001002400004004897
:1004700000B585B000F034F801F024FCFFF79AFFD6
:1004800001F040FC01224FF400714FF0904000F069
:1004900077FD0D4D02950D4C01940123009300232F
:1004A00080220B490B4802F035FA02950194022391
:1004B0000093002380220849084802F02BFA02F03A
:1004C00073FAFFF7ABFE00BF5C0200205C00002067
:1004D000E03B000815030008EC3B00084D02000853
:1004E00010B5032000F04EFC0F2001F049FC10B1C4
:1004F0000124204610BD044601F0E4FBF9E70000AA
:10050000034B1B78034A11680B441360704700BF0C
:1005100000000020B4020020014B1868704700BFA3
:10052000B402002038B50446FFF7F6FF0546B4F1E3
:10053000FF3F02D0044B1B781C44FFF7EDFF401B2C
:10054000A042FAD338BD00BF00000020002800F010
:10055000A18038B5044690F82030D3B122681368E2
:1005600043F001031360FFF7D7FF054623685A687D
:1005700012F0010F10D1FFF7CFFF401B0A28F5D969
:10058000636A43F400336362052384F8203001205A
:1005900038BD03F0C3F9E1E71A6822F002021A60DD
:1005A000FFF7BAFF054623685A6812F0020F0DD014
:1005B000FFF7B2FF401B0A28F5D9636A43F4003302
:1005C0006362052384F820300120E1E7227E012ABE
:1005D0003DD01A6822F080021A60637E012B3BD066
:1005E0002268136823F040031360A37E012B39D0E7
:1005F0002268136823F020031360E37E012B37D0B9
:100600002268136843F010031360237F012B35D059
:100610002268136823F008031360637F012B33D033
:100620002268136823F004031360A368E26813438D
:1006300022691343626913436268013A21681343D4
:10064000CB6100206062012384F82030A0E71A68A3
:1006500042F080021A60C0E72268136843F040034A
:100660001360C2E72268136843F020031360C4E7F5
:100670002268136823F010031360C6E7226813682A
:1006800043F008031360C8E72268136843F00403CB
:100690001360CAE701207047026890F82030013BE0
:1006A000DBB2012B05D9436A43F480234362012066
:1006B000704730B4D2F8003243F00103C2F8003280
:1006C0004B6903F01F03012000FA03F3D2F81C0268
:1006D0006FEA030C20EA0300C2F81C02C869B0B933
:1006E000D2F80C020CEA0000C2F80C028C884869AF
:1006F000CD6844EA0544483042F830400C884869E7
:100700008D6844EA0544483002EBC0004460C86983
:1007100001281BD0886980BBD2F804020CEA0000D3
:10072000C2F80402086970BBD2F814020CEA000097
:10073000C2F81402096A01292BD0D2F8003223F042
:100740000103C2F80032002030BC7047D2F80C021E
:100750001843C2F80C028C8848690D6844EA0544C5
:10076000483042F830408C8948698D6844EA054435
:10077000483002EBC0004460CCE7D2F804021843D2
:10078000C2F80402CEE7D2F814021843C2F81402E9
:10079000D0E7D2F81C120B43C2F81C32CDE770B57B
:1007A000044690F82050EDB2012D06D0436A43F480
:1007B000002343620125284670BD022380F82030C3
:1007C0000268136823F001031360FFF7A5FE0646D5
:1007D00023685B6813F0010F0CD0FFF79DFE831BAD
:1007E0000A2BF5D9636A43F400336362052384F866
:1007F0002030E0E700256562DDE730B590F820C0E5
:100800000468A4680CF1FF3C5FFA8CFCBCF1010F9A
:1008100062D814F0E05F59D0C4F3016C012404FAEB
:100820000CF41C608B68002B3DD10D68CB6804680C
:1008300043EA45550CF118031B01E55003680C69A8
:100840000CF1180E03EB0E135C600B7D012B35D001
:10085000D17993791B0443EA0163517943EA012377
:1008600014790168234301EB0C11C1F88C31D17864
:1008700093781B0443EA0163517843EA012311781A
:1008800002680B4302EB0C12C2F8883102680CF1CB
:10089000180C4FEA0C1C52F80C3043F0010342F8DC
:1008A0000C3000201DE04C6843EAC403CC682343AD
:1008B0000CF11804240105682B51BFE7036803EB12
:1008C0000E13596841F480715960C1E7436A43F4DB
:1008D00000134362012004E0436A43F4802343622F
:1008E000012030BD90F82030013BDBB2012B01D953
:1008F000002070470368986810F0806000D00120E5
:100900009A6812F0006F00D001309B6813F0805F8E
:10091000EFD00130704790F820C00CF1FF3C5FFA37
:100920008CFCBCF1010F00F2A58030B451B9046811
:10093000E46814F0030F10D1436A43F400134362D8
:1009400001207EE00468246914F0030F05D1436A96
:1009500043F400134362012073E0056801F11B04B6
:1009600024012C5904F004049460002C6BD1056818
:1009700001F11B0424012C59640D1460046801F179
:100980001B0C4FEA0C1C54F80C4004F00204D46019
:100990000468A444DCF8045015F0080F5BD0082468
:1009A0001461046801F11B0C04EB0C146468C4F3BB
:1009B00007249461046804EB0C146468240C5461EB
:1009C000026802EB0112D2F8B8211A70026802EB39
:1009D0000112D2F8B821C2F307225A70026802EB62
:1009E0000112D2F8B821C2F307429A70026802EBF2
:1009F0000112D2F8B821120EDA70026802EB01126D
:100A0000D2F8BC211A71026802EB0112D2F8BC21A3
:100A1000C2F307225A71026802EB0112D2F8BC211C
:100A2000C2F307429A71026802EB0112D2F8BC21AC
:100A3000120EDA71C1B90268D36843F02003D360A3
:100A4000002030BC7047056801F11B0424012C59BB
:100A5000E408546092E701F11B0504EB0514646897
:100A600004F00F0414619CE70268136943F020034B
:100A70001361E5E7436A43F4802343620120704732
:100A800090F82030013BDBB2012B05D9436A43F4D7
:100A90008023436201207047026853690B4353610E
:100AA0000020704770477047704770477047704725
:100AB0007047704770472DE9F84F054603685C6939
:100AC000D3F804809F68D3F80CB0D3F810A0D3F803
:100AD000189014F001063BD017F0010616D0012241
:100AE0009A6017F0020F08D117F0040F0CD117F01D
:100AF000080606D04FF4805608E002F0D3FF002627
:100B000004E0FFF7CFFF01E04FF4006617F4807FA9
:100B10000DD02B684FF480729A6017F4007F40F07C
:100B2000868017F4806F00F0868046F4005617F434
:100B3000803F0DD02B684FF480329A6017F4003F4D
:100B400040F0838017F4802F00F0838046F4004645
:100B500014F0080F07D01BF0100F04D046F40076F5
:100B60002B681022DA6014F0040F02D01BF0080F7B
:100B700079D114F0020F04D02B68DB6813F0030F57
:100B800078D114F0400F07D01AF0100F04D046F4BB
:100B900080662B6810221A6114F0200F02D01AF020
:100BA000080F6BD114F0100F04D02B681B6913F0E1
:100BB000030F6AD114F4003F02D018F0100F68D16F
:100BC00014F4803F02D018F0080F69D114F4004FDC
:100BD0007AD018F0040F74D014F4807F04D019F088
:100BE000010F01D046F0010614F4007F04D019F083
:100BF000020F01D046F0020614F4806F04D019F001
:100C0000040F01D046F0040614F4006F59D019F017
:100C1000700956D0B9F1400F65D058D8B9F1200FFE
:100C20005ED0B9F1300F42D146F0200644E02846AC
:100C300002F03CFF7BE717F4006F02D046F48046D9
:100C400075E72846FFF72FFF71E7284602F032FFCD
:100C50007EE717F4002F02D046F4803678E7284666
:100C6000FFF722FF74E72B680822DA602846FFF7B7
:100C70001CFF7EE7284602F021FF82E72B6808224E
:100C80001A612846FFF713FF8CE72846FFF70EFF8F
:100C900090E72B6810225A602846FFF709FF8FE77C
:100CA0002B6808225A602846FFF703FF8EE7B9F148
:100CB000100F01D146F008062A68936923F07003EB
:100CC00093612B6804225A609EB9BDE8F88FB9F190
:100CD000500F0BD0B9F1600FEED146F48076EBE700
:100CE00046F01006E8E746F04006E5E746F08006E5
:100CF000E2E76B6A33436B622846FFF7DBFEE4E70B
:100D0000002807DB00F01F02400901239340024A3C
:100D100042F82030704700BF00E100E0002808DB07
:100D20000901C9B200F1604000F5614080F800138C
:100D3000704700F00F000901C9B2014B1954704708
:100D400014ED00E000B500F00700C0F1070CBCF1A5
:100D5000040F28BF4FF0040C031D062B0FD9C31E30
:100D60004FF0FF3E0EFA0CF021EA000199400EFA16
:100D700003FE22EA0E0241EA02005DF804FB0023B2
:100D8000EEE70000074AD36823F4E0631B041B0C62
:100D9000000200F4E060034343F0BF6343F4003318
:100DA000D360704700ED00E010B50446054BD868ED
:100DB000C0F30220FFF7C6FF01462046FFF7AEFF53
:100DC00010BD00BF00ED00E008B5FFF799FF08BDBA
:100DD000F0B583B0002362E085685E000324B44070
:100DE00025EA0405CC68B4402C438460456825EAB4
:100DF0000C054C68C4F300149C402C4344605FE035
:100E0000DD08083550F8254003F0070C4FEA8C0C3C
:100E10004FF00F0E0EFA0CFE24EA0E0E0C6904FAC7
:100E20000CF444EA0E0440F8254060E0022400E09F
:100E3000002404FA0EF42C430CF1020C4C4D45F83E
:100E40002C404C4CA568D44325EA02064F6817F4A1
:100E5000801F01D042EA0506464DAE60ED6804EA07
:100E600005064F6817F4001F01D042EA0506414D00
:100E7000EE606D6804EA05064F6817F4003F01D084
:100E800042EA05063B4D6E602D682C404E6816F414
:100E9000803F01D042EA0504364A146001330A68F3
:100EA00032FA03F462D04FF0010C0CFA03FC1CEA96
:100EB0000202F3D04C6804F00304013C012C8BD9EE
:100EC0004C6804F00304032C0CD0C4685D004FF0A0
:100ED000030C0CFA05FC24EA0C0C8C68AC4044EAC8
:100EE0000C04C4604C6804F00304022C88D004682D
:100EF0004FEA430E4FF0030C0CFA0EFC24EA0C0CE4
:100F00004C6804F0030404FA0EF444EA0C04046090
:100F10004C6814F4403FC1D0174C256E45F00105D4
:100F20002566246E04F001040194019C4FEA930CA1
:100F30000CF102050E4C54F8255003F0030E4FEA55
:100F40008E0E0F2404FA0EF425EA0405B0F1904F3A
:100F50003FF46EAF094CA04206D004F58064A04275
:100F60003FF464AF072464E7012462E703B0F0BDF7
:100F7000000001400004014000100240000400484D
:100F80000AB181617047816270470000024B1868A6
:100F900000F4C060704700BF00700040B0F5007FF3
:100FA0000FD01F4B1B6803F4C063B3F5806F34D0C0
:100FB0001B4A136823F4C06343F48063136000206A
:100FC0007047174B1B6803F4C063B3F5007F20D054
:100FD000134A136823F4C06343F400731360114B86
:100FE0001B68322202FB03F30F4AA2FB03239B0C74
:100FF000013300E0013B0A4A526912F4806F01D0CC
:10100000002BF7D1064B5B6913F4806F03D10020EE
:10101000704700207047032070470020704700BFD2
:10102000007000400800002083DE1B4330B583B011
:101030000446204B9B6D13F0805F0BD0FFF7A6FF9B
:10104000B0F5007F17D0802C1FD82DD0702C2DD05C
:1010500000211BE0174DAB6D43F08053AB65AB6DCA
:1010600003F080530193019BFFF790FFAB6D23F0DA
:101070008053AB65E4E7802C03D9A02C03D902216F
:1010800004E0002102E0012100E003210A4A136884
:1010900023F007030B431360136803F007038B422D
:1010A00006D1002003B030BD0221EFE70121EDE7BA
:1010B0000120F7E70010024000200240284A936810
:1010C000D26802F0030213F00C030AD00C2B06D0F6
:1010D000042B1FD0082B20D00020024610E0012A4C
:1010E000F6D11F4A126812F0080F0CD11C4AD2F830
:1010F0009420C2F303221B4951F8222043B100205F
:101100000C2B0DD07047164A1268C2F30312F2E797
:101110001046F5E714480022F2E714480022EFE7F2
:101120000F4BDB6803F00303022B16D0032B00D117
:101130000E4A0B49CB68C3F302130133C868C0F3EE
:10114000062002FB00F0B0FBF3F0CB68C3F3416371
:1011500001335B00B0FBF3F0D4E7034AE9E700BFDB
:1011600000100240FC3B00080024F40000127A004A
:10117000002800F01C83F0B583B00446964B9D68B0
:1011800005F00C05DE6806F00306036813F0100F87
:101190005AD0E5B10C2D18D0A369002B00F0BB800C
:1011A0008D4A136843F001031360FFF7B5F9074652
:1011B000894B1B6813F0020F40F09A80FFF7ACF9DF
:1011C000C01B0228F4D90320FCE2012EE4D1824B9B
:1011D0001B6813F0020F03D0A369002B00F0E98213
:1011E000206A7D4B1B6813F0080F5BD07A4B1B689D
:1011F00003F0F00398425CD8774B1A6842F008027B
:101200001A601A6822F0F002216A0A431A605A68CA
:1012100022F47F42E16942EA01225A60002D60D047
:10122000FFF74CFF6C4B9B68C3F303136B4AD35C13
:1012300003F01F03D8406A4B18606A4B186800F02F
:101240009FFD002840F0BE82236813F0010F00F0DC
:101250008180082D75D00C2D71D06368B3F5803F67
:1012600000F09780B3F5A02F00F099805A4B1A68D0
:1012700022F480321A601A6822F480221A606368AD
:10128000002B00F09980FFF747F90746524B1B6887
:1012900013F4003F5ED1FFF73FF9C01B6428F5D976
:1012A00003208FE24C4BD3F894301B0903F0F0037A
:1012B000A0E7FFF7BBFE002840F07D82464B1A688E
:1012C00042F008021A601A6822F0F002216A0A430A
:1012D0001A605A6822F47F42E16942EA01225A60A8
:1012E0009EE7206AFFF7A2FE002899D0012069E25C
:1012F000394B1A6842F008021A601A6822F0F002AC
:10130000216A0A431A605A6822F47F42E16942EA7C
:1013100001225A6098E7304A136823F001031360F2
:10132000FFF7FAF807462C4B1B6813F0020F8BD01F
:10133000FFF7F2F8C01B0228F5D9032042E2032E82
:101340008BD1254B1B6813F4003F03D06368002B3F
:1013500000F03382236813F0020F58D0042D45D0DB
:101360000C2D41D0E368002B77D01B4A136843F45F
:1013700080731360FFF7D0F80646174B1B6813F411
:10138000806F61D1FFF7C8F8801B0228F5D90320D0
:1013900018E2114A136843F4803313606FE703F1D6
:1013A0008043A3F53C331A6842F480221A601A681D
:1013B00042F480321A6062E7FFF7AEF80746064B48
:1013C0001B6813F4003FC5D0FFF7A6F8C01B6428C4
:1013D000F5D90320F6E100BF00100240343C0008BC
:1013E0000800002004000020022EBBD1A44B1B6883
:1013F00013F4806F03D0E368002B00F0E081A04A73
:10140000536823F0F853216943EA0163536023686A
:1014100013F0080F4CD063699BB3994AD2F894300B
:1014200043F00103C2F89430FFF776F80646944B78
:10143000D3F8943013F0020F3AD1FFF76DF8801B08
:101440000228F4D90320BDE18D4A536823F0F853F4
:10145000216943EA01635360D9E7894A136823F499
:1014600080731360FFF758F80646854B1B6813F42A
:10147000806FCCD0FFF750F8801B0228F5D90320ED
:10148000A0E17F4AD2F8943023F00103C2F89430EF
:10149000FFF742F806467A4BD3F8943013F0020F68
:1014A00006D0FFF739F8801B0228F4D9032089E120
:1014B000236813F0040F7AD0714B9B6D13F0805F9B
:1014C00036D16F4B9A6D42F080529A659B6D03F056
:1014D00080530193019B01266A4B1B6813F4807FA4
:1014E00028D0A368012B39D0052B3FD0644BD3F80B
:1014F000902022F00102C3F89020D3F8902022F02F
:101500000402C3F89020A368002B3DD0FFF704F835
:1015100007465B4BD3F8903013F0020F46D1FEF72D
:10152000FBFFC01B41F288339842F2D9032049E106
:101530000026D1E7534A136843F480731360FEF723
:10154000EBFF07464F4B1B6813F4807FC9D1FEF7B2
:10155000E3FFC01B0228F5D9032033E1484AD2F843
:10156000903043F00103C2F89030CCE7444BD3F8FD
:10157000902042F00402C3F89020D3F8902042F06B
:101580000102C3F89020BEE7FEF7C6FF07463C4BBA
:10159000D3F8903013F0020F08D0FEF7BDFFC01B48
:1015A00041F288339842F2D903200BE1E6B923686F
:1015B00013F0200F35D0636AE3B1314AD2F8983086
:1015C00043F00103C2F89830FEF7A6FF06462C4B05
:1015D000D3F8983013F0020F23D1FEF79DFF801B44
:1015E0000228F4D90320EDE0254A936D23F08053BF
:1015F0009365DCE7224AD2F8983023F00103C2F861
:101600009830FEF789FF06461D4BD3F8983013F04B
:10161000020F06D0FEF780FF801B0228F4D90320BA
:10162000D0E0A36A002B00F0CC80022B17D00C2D49
:1016300000F0CC80124A136823F080731360FEF729
:101640006BFF04460E4B1B6813F0007F00F0A88070
:10165000FEF762FF001B0228F4D90320B2E0084B1A
:10166000DB6803F00301E26A91420DD00C2D00F01B
:10167000AB80034B1B6813F0806F2FD00120A1E0DB
:10168000001002400070004003F07002216B01392D
:10169000B2EB011FEAD103F4FE42616BB2EB012F02
:1016A000E4D103F07842A16BB2EBC16FDED103F459
:1016B000C001E26B5208013AB1EB425FD6D103F0B0
:1016C000C063226C5208013AB3EB426FCED1404B5B
:1016D0001B6813F0007F49D0002073E03C4A136878
:1016E00023F080731360FEF717FF0546384B1B6825
:1016F00013F0007F06D0FEF70FFF401B0228F5D93C
:1017000003205FE0324AD36832491940E36A206B14
:10171000013843EA0013606B43EA0023E06B4008A2
:10172000013843EA4053206C4008013843EA4063E3
:10173000A06B43EAC0631943D160136843F0807320
:101740001360D36843F08073D360FEF7E5FE044670
:101750001F4B1B6813F0007F06D1FEF7DDFE001B58
:101760000228F5D903202DE000202BE0184B1A6841
:1017700042F080721A60DA6842F08072DA60FEF736
:10178000CBFE0446124B1B6813F0007F06D1FEF718
:10179000C3FE031B022BF5D9032013E0002011E048
:1017A0000B4AD1680C4B0B40D36000200AE00120AB
:1017B0007047012006E0012004E0012002E0012042
:1017C00000E0002003B0F0BD0120FBE70120F9E7B5
:1017D000001002408C809D01FCFFEEFE002800F00E
:1017E000AF8070B50D460446594B1B6803F00703E4
:1017F0008B420BD2564A136823F007030B43136046
:10180000136803F007038B4240F09C80236813F0B9
:10181000020F0CD0A2684F4B9B6803F0F0039A4272
:1018200005D94C498B6823F0F0031A438A6023687A
:1018300013F0010F39D06368032B09D0022B26D097
:1018400063BB444A126812F0020F06D1012076E011
:10185000404A126812F0007F76D03E498A6822F032
:10186000030213438B60FEF757FE0646394B9B6815
:1018700003F00C036268B3EB820F16D0FEF74CFE48
:10188000801B41F288339842F0D9032057E0314A57
:10189000126812F4003FE0D1012050E02D4A126896
:1018A00012F4806FD9D1012049E0236813F0020FB0
:1018B0000CD0A268274B9B6803F0F0039A4205D234
:1018C00024498B6823F0F0031A438A60204B1B687D
:1018D00003F00703AB420AD91D4A136823F007033C
:1018E0002B431360136803F00703AB422ED1236828
:1018F00013F0040F06D0174A936823F4E063E168FD
:101900000B439360236813F0080F07D0114A9368C4
:1019100023F46053216943EAC1039360FFF7CEFBD0
:101920000C4B9B68C3F303130B4AD35C03F01F03F8
:10193000D8400A4B18600A4B186800F021FA70BDB5
:10194000012070470120FAE70120F8E70120F6E7BF
:101950000020024000100240343C00080800002033
:1019600004000020014B1868704700BF08000020E9
:1019700008B5FFF7F7FF054B9B68C3F3C223044A82
:10198000D35C03F01F03D84008BD00BF0010024025
:101990002C3C00080F2303600B4B9A6802F00302F3
:1019A00042609A6802F0F00282609A6802F4E06293
:1019B000C2609B68DB0803F4E0630361034B1B68B0
:1019C00003F007030B607047001002400020024044
:1019D0007047000090F83D30DBB2012B26D1022386
:1019E00080F83D300268D36843F00103D360036898
:1019F000114A93420CD0B3F1804F09D002F5A052A6
:101A0000934205D01A6842F001021A600020704724
:101A100099680A4A0A40062A0AD0B2F5803F09D0DE
:101A20001A6842F001021A600020704701207047D6
:101A30000020704700207047002C01400700010083
:101A4000704770477047704770B504460368DE689A
:101A50001D6915F0020F10D016F0020F0DD06FF0B7
:101A600002021A610123037703689B6913F0030FD5
:101A700064D0FFF7E6FF0023237715F0040F12D0A0
:101A800016F0040F0FD023686FF004021A610223CE
:101A9000237723689B6913F4407F55D02046FFF7D6
:101AA000D0FF0023237715F0080F12D016F0080F8F
:101AB0000FD023686FF008021A610423237723688C
:101AC000DB6913F0030F46D02046FFF7BAFF00236F
:101AD000237715F0100F12D016F0100F0FD02368D7
:101AE0006FF010021A61082323772368DB6913F46F
:101AF000407F37D02046FFF7A4FF0023237715F05F
:101B0000010F02D016F0010F33D115F4025F02D09D
:101B100016F0800F35D115F4807F02D016F0800FBB
:101B200037D115F0400F02D016F0400F39D115F023
:101B3000200F02D016F0200F3BD170BDFFF780FFC1
:101B40002046FFF77FFF96E72046FFF779FF204604
:101B5000FFF778FFA5E72046FFF772FF2046FFF763
:101B600071FFB4E72046FFF76BFF2046FFF76AFFDF
:101B7000C3E723686FF001021A61204600F04AF9BA
:101B8000C3E723686FF402521A61204600F08BF815
:101B9000C1E723686FF480721A61204600F084F870
:101BA000BFE723686FF040021A612046FFF74BFF42
:101BB000BDE723686FF020021A61204600F072F83A
:101BC000BBE7000003681E4A904202D0B0F1804F8C
:101BD00003D123F070034A681343194A90420AD094
:101BE000B0F1804F07D002F5A052904203D002F529
:101BF0008062904203D123F44073CA68134323F0F8
:101C000080034A69134303608B68C3620B68836275
:101C10000B4B984207D003F5A053984203D003F52D
:101C20008063984201D10B69036301234361036917
:101C300013F0010F03D0036923F001030361704720
:101C4000002C014060B310B5044690F83D3013B34A
:101C5000022384F83D30214651F8040BFFF7B2FF10
:101C6000012384F8483084F83E3084F83F3084F80B
:101C7000403084F8413084F8423084F8433084F8AE
:101C8000443084F8453084F8463084F8473084F88E
:101C90003D30002010BD80F83C30FFF799FED7E7BB
:101CA000012070477047704770470000034AD2F820
:101CB000883043F47003C2F88830704700ED00E0CC
:101CC00072B6FEE700B583B00D4B1A6E42F001020A
:101CD0001A661A6E02F001020092009A9A6D42F0A2
:101CE00080529A659B6D03F080530193019B002203
:101CF0000F216FF00100FFF757F803B05DF804FB08
:101D00000010024000B597B04422002105A801F060
:101D100053FF0023009301930293039304934FF422
:101D20000070FFF73BF928BB1023059301220B92AB
:101D300000230C9360230D9302230F9310921192B2
:101D400028221292072213921493159305A8FFF7E5
:101D50000FFA88B90F230093032301930023029302
:101D60000393049304216846FFF738FD30B917B098
:101D70005DF804FBFFF7A4FFFFF7A2FFFFF7A0FF4A
:101D800030B589B004461E4B1A6E42F400621A66E2
:101D90001B6E03F400630193019B02A903A8FFF7E4
:101DA000F9FDFFF7E5FD174AA2FB00239B0C013B61
:101DB0001548164A026040F2E732C26043600023D1
:101DC000036183608361FFF73DFF054610B128463C
:101DD00009B030BD0C48FFF7FDFD05460028F6D1DF
:101DE0001920FEF7F1FF0F2C01D90125EFE70022A2
:101DF00021461920FEF7D8FF054B1C60E7E700BF1E
:101E00000010024083DE1B43B8020020002C01407A
:101E10000400002008B50268034B9A4200D008BDB8
:101E2000FEF76EFBFBE700BF002C014008B502483F
:101E3000FFF70AFE08BD00BFB802002000F108034A
:101E400043604FF0FF328260C36003610023036090
:101E5000704700230361704730B40D68B5F1FF3F50
:101E600011D000F108031C465B681A68AA42FAD92F
:101E700063684B6099608C6061600861036801333E
:101E8000036030BC70470469F2E703694168826807
:101E90008A60416851605A68824205D0002202611E
:101EA000186801381860704782685A60F6E710B504
:101EB000044601F057FBA26BE36B9A4204D0002466
:101EC00001F072FB204610BD0124F9E710B504466D
:101ED00001F048FBA36B23B9012401F065FB204608
:101EE00010BD0024F9E770B504461546866B026CF8
:101EF0005AB903681BB100200136A66370BD806823
:101F000001F074F80023A360F6E76DB9406801F0B2
:101F100045FE6368226C13446360A268934219D340
:101F2000236863602846E7E7C06801F037FEE3688E
:101F3000226C51429B1AE3602268934202D2A3684A
:101F40000B44E360022D01D00020D5E726B1013E0D
:101F50000020D1E72846CFE70020CDE70346026CFA
:101F60006AB110B50846D9681144D9609C68A1428D
:101F700001D31968D960D96801F010FE10BD70470F
:101F800038B5054601F0EEFA95F8454064B201E037
:101F9000013C64B2002C0ADD6B6A43B105F12400F8
:101FA00000F042FF0028F3D001F00AF8F0E7FF2329
:101FB00085F8453001F0F8FA01F0D4FA95F844407C
:101FC00064B201E0013C64B2002C0ADD2B6943B12C
:101FD00005F1100000F028FF0028F3D000F0F0FF1A
:101FE000F0E7FF2385F8443001F0DEFA38BD38B55C
:101FF00090B10D460446C36B2BB1026C0021A2FBCD
:10200000032393B999B14FF0500383F31188BFF3C1
:102010006F8FBFF34F8FFEE74FF0500383F31188AC
:10202000BFF36F8FBFF34F8FFEE70121EAE701F0A7
:1020300099FA2368E26B216C01FB0230A06000205A
:10204000A0636360013A02FB0133E360FF2384F87D
:10205000443084F84530B5B923691BB901F0A4FABE
:10206000012038BD04F1100000F0DEFE0028F5D09C
:102070004FF0E0234FF08052C3F8042DBFF34F8F91
:10208000BFF36F8FEAE704F11000FFF7D7FE04F10A
:102090002400FFF7D3FEE1E710B5034602980C4693
:1020A00031B90060C36304640121FFF7A0FF10BDD4
:1020B0000260F7E773B110B584B01C4608B192B165
:1020C00099B94FF0500383F31188BFF36F8FBFF3BB
:1020D0004F8FFEE74FF0500383F31188BFF36F8FEC
:1020E000BFF34F8FFEE70029EBD148230393039BF7
:1020F000482B08D04FF0500383F31188BFF36F8F44
:10210000BFF34F8FFEE7039B00949DF81830FFF755
:10211000C3FF204604B010BDF0B585B0019288B170
:102120000F461D460446B1B1022D20D1E36B012BB1
:102130001DD04FF0500383F31188BFF36F8FBFF3AF
:102140004F8FFEE74FF0500383F31188BFF36F8F7B
:10215000BFF34F8FFEE7036C002BE5D04FF0500329
:1021600083F31188BFF36F8FBFF34F8FFEE700F04B
:102170002DFF064658B9019B002B48D04FF0500365
:1021800083F31188BFF36F8FBFF34F8FFEE70026F5
:102190003DE02A4639462046FFF7A5FE636A7BB933
:1021A00048B14FF0E0234FF08052C3F8042DBFF345
:1021B0004F8FBFF36F8F01F0F7F9012005B0F0BD2D
:1021C00004F1240000F030FE0028F4D04FF0E023AA
:1021D0004FF08052C3F8042DBFF34F8FBFF36F8FC2
:1021E000E9E701F0E1F90020E8E702A800F098FE35
:1021F000012619E0002384F8443021E0002384F80C
:10220000453023E02046FFF7BBFE00F0D3FC01F091
:10221000A9F9A26BE36B9A42BBD3022DB9D0019B03
:10222000002BDED0002EE0D001F0BEF900F0F2FB72
:1022300001F098F994F8442052B2B2F1FF3FD9D09E
:1022400094F8452052B2B2F1FF3FD7D001F0ACF97B
:1022500001A902A800F070FED8B92046FFF727FEBA
:102260000028CFD0019904F1100000F09BFD20461A
:10227000FFF786FE00F09EFC0028C8D14FF0E02357
:102280004FF08052C3F8042DBFF34F8FBFF36F8F11
:10229000BDE72046FFF774FE00F08CFC00208DE7C0
:1022A000F0B585B0019290B10F460446C1B100F07F
:1022B0008DFE064600BB019B002B5ED04FF0500305
:1022C00083F31188BFF36F8FBFF34F8FFEE74FF09B
:1022D000500383F31188BFF36F8FBFF34F8FFEE777
:1022E000036C002BE3D04FF0500383F31188BFF34E
:1022F0006F8FBFF34F8FFEE700263EE03946204642
:10230000FFF72CFE013DA563236923B901F04CF9C9
:10231000012005B0F0BD04F1100000F085FD00289B
:10232000F4D04FF0E0234FF08052C3F8042DBFF3F8
:102330004F8FBFF36F8FE9E701F036F90020E8E730
:1023400002A800F0EDFD012621E0002384F84430CE
:1023500029E0002384F845302BE02046FFF710FEEB
:1023600000F028FC09E02046FFF70AFE00F022FCFE
:102370002046FFF7ABFD00283FD101F0F3F8A56B35
:10238000002DBBD1019B002BD6D0002ED8D001F060
:102390000BF900F03FFB01F0E5F894F844305BB234
:1023A000B3F1FF3FD1D094F845305BB2B3F1FF3FBA
:1023B000CFD001F0F9F801A902A800F0BDFD002876
:1023C000D1D12046FFF782FD0028C6D0019904F143
:1023D000240000F0E7FC2046FFF7D2FD00F0EAFB06
:1023E0000028CAD14FF0E0234FF08052C3F8042DEB
:1023F000BFF34F8FBFF36F8FBFE7002089E72DE951
:10240000F843B0B10E4690460446D9B101F0D6F972
:10241000EFF311854FF0500383F31188BFF36F8FF3
:10242000BFF34F8FA76BCFB9002085F31188BDE8AC
:10243000F8834FF0500383F31188BFF36F8FBFF31E
:102440004F8FFEE7036C002BE0D04FF0500383F377
:102450001188BFF36F8FBFF34F8FFEE794F844905E
:102460004FFA89F931462046FFF778FD7B1EA363BA
:10247000B9F1FF3F0FD123690BB90120D5E704F172
:10248000100000F0D1FCE8B1B8F1000F1CD0012021
:10249000C8F80000C9E700F0CBFA814516D2B9F1BF
:1024A0007F0F06D009F101035BB284F844300120AC
:1024B000BBE74FF0500383F31188BFF36F8FBFF377
:1024C0004F8FFEE70120B0E70120AEE70120ACE727
:1024D00028B110B4044631B3002003460DE04FF09C
:1024E000500383F31188BFF36F8FBFF34F8FFEE765
:1024F0000E4800EBC30014E00133072B10D80B4A41
:1025000002EBC3025268A242F2D00028F4D1074A7B
:1025100052F83320002AEFD1044800EBC300EBE768
:1025200008B1016044605DF8044B7047040300206B
:1025300070B504460D46164601F014F894F8443080
:102540005BB2B3F1FF3F0DD094F845305BB2B3F10D
:10255000FF3F0BD001F028F8A36B5BB12046FFF7DB
:102560000FFD70BD002384F84430EDE7002384F8AC
:102570004530EFE73246294604F1240000F02AFCFA
:10258000ECE70000074B1B681B6823B9064B4FF0B4
:10259000FF321A607047034B1B68DB681A68024BF6
:1025A0001A607047B40300204C0300202DE9F0416D
:1025B00007469846069E089C206B02F18043013B2B
:1025C00000EB830020F0070571B10B4600220F2AB3
:1025D00007D8995C04EB020C8CF8341009B1013275
:1025E000F5E7002384F84330062E08D94FF0500356
:1025F00083F31188BFF36F8FBFF34F8FFEE7E6625F
:102600006664201DFFF725FC04F11800FFF721FC8C
:102610002461C6F10706A66164624246394628462F
:1026200000F08AFF2060079B03B11C60BDE8F081C9
:102630002DE9F04186B00D9F9FB180460E461546AC
:102640001C460E9BB3B154230593059B542B1AD003
:102650004FF0500383F31188BFF36F8FBFF34F8F99
:10266000FEE74FF0500383F31188BFF36F8FBFF382
:102670004F8FFEE74FF0500383F31188BFF36F8F46
:10268000BFF34F8FFEE7059B542200210E9801F007
:1026900093FA0E9B1F63002303930E9B02930F9BE1
:1026A00001930C9B009323462A4631464046FFF790
:1026B0007DFF0E9806B0BDE8F081000038B500241B
:1026C00007E004EB840293000E481844FFF7B6FBC2
:1026D0000134062CF5D90C4D2846FFF7AFFB0B4C07
:1026E0002046FFF7ABFB0A48FFF7A8FB0948FFF7B6
:1026F000A5FB0948FFF7A2FB084B1D60084B1C60B7
:1027000038BD00BFE0030020CC030020B803002048
:102710009C0300208803002070030020B4030020E5
:10272000B003002010B5044600F01CFF2A4A1368CD
:1027300001331360294B1B685BB1294B1B686BB9D4
:10274000264B1B68DA6AE36A9A4207D8234B1C605F
:1027500004E0224B1C601368012B39D0214A136816
:1027600001331360E36A01229A401F49086802435B
:102770000A601E4A03EB830302EB83035B68A360DA
:102780009868E060211D41609960E36A03EB830172
:1027900002EB8100606152F82110013103EB8303E9
:1027A00042F8231000F000FF0D4B1B687BB10B4B70
:1027B0001B68DA6AE36A9A4209D24FF0E0234FF0CD
:1027C0008052C3F8042DBFF34F8FBFF36F8F10BD3E
:1027D000FFF774FFC2E700BF6C0300206C04002009
:1027E000600300205003002064030020E003002069
:1027F00008B511E000F0B6FE0A4BDB68D86804307B
:10280000FFF743FB084A1368013B1360074A13684C
:10281000013B136000F0C8FE044B1B68002BE9D19C
:1028200008BD00BF880300206C0300208403002043
:1028300008B5FFF7DDFF074B1B68012BF9D94FF0F7
:10284000E0234FF08052C3F8042DBFF34F8FBFF346
:102850006F8FEEE7E00300202DE9F04104460D46BE
:10286000254B1E68254B1F68254BD3F80080254B50
:1028700018680430FFF709FB48B9224B1B68DB6A74
:1028800001229A4020490B6823EA02030B60B4F14D
:10289000FF3F0DD034441B4B1B685C60A6421DD922
:1028A000184B196804314046FFF7D6FABDE8F081AD
:1028B000002DEFD0154A5168124B186881601868D6
:1028C0008C68C460186804306060186804308860E0
:1028D0001B685A61136801331360E7E7094B1968F5
:1028E00004313846FFF7B8FA094B1B68A342DDD91B
:1028F000074B1C60DAE700BF68030020B403002028
:10290000B00300206C04002064030020700300204A
:102910004C03002010B586B00024059405AC039448
:102920000A9C0294099C0194089C0094FFF780FE85
:1029300008B1FFF7F7FE059806B010BD30B58DB0B1
:1029400000230F2B09DC154AD25C03F130016944E6
:1029500001F8102C0AB10133F3E70024002C02DD4A
:1029600001200DB030BD00250595069507AA06A9E2
:1029700005A800F051FF059B0293069B019300956B
:102980002B46079A08A90648FFF7C4FF054B43F8F2
:10299000240008B10134E1E70020E2E7443C0008EC
:1029A000312800084803002008B5FFF7C7FF0128B9
:1029B00005D0B0F1FF3F1BD0124B1B6808BD00F0E3
:1029C00001FD0128F5D14FF0500383F31188BFF3C7
:1029D0006F8FBFF34F8F0C4B4FF0FF321A600B4BD2
:1029E00001221A600A4B00221A6000F01DFEE3E784
:1029F0004FF0500383F31188BFF36F8FBFF34F8FF6
:102A0000FEE700BF0C0000204C0300206003002004
:102A100068030020024A136801331360704700BF47
:102A200044030020014B1868704700BF6803002072
:102A3000014B1868704700BF6C030020F8B5524B7B
:102A40001B68002B40F09980504B1C6801341C60BF
:102A5000C4B94F4B1B681B6843B14FF0500383F35D
:102A60001188BFF36F8FBFF34F8FFEE7484A11689D
:102A7000484B186810601960474A136801331360A7
:102A8000FFF780FD454B1B68A34211D90020444B42
:102A90001B68DB6A03EB83039A00424B9B58012BB4
:102AA00000D90120404B1B68002B6BD0012069E04E
:102AB000002037E0394B4FF0FF321A60E7E7374B21
:102AC0001A60E4E7D968516042E000219962116818
:102AD00001391160DA6A01219140344E3768394377
:102AE0003160304902EB82024FEA820C8C44DCF800
:102AF00004209A609668DE6075609560DA6A02EB81
:102B0000820C4FEA8C056E185E614D5901354FEA13
:102B10008C0C41F80C50DA6A214B1B68DB6A9A4234
:102B200000D901201A4B1B681B68002BC2D0184B20
:102B30001B68DB68DB685A689442C0D35A699D6899
:102B4000D968A9609D684D6051681D1DA942B9D022
:102B5000002159611168013911609A6A002AB9D0BF
:102B6000DE69196AB160DE694E60566803F11801CA
:102B70008E42AAD1196A5160A7E70D4A1368013342
:102B800013600020F8BD00BF44030020680300204C
:102B9000B4030020B0030020540300204C030020A5
:102BA0006C040020E0030020580300206403002090
:102BB0005C03002038B500F0D5FC4C4B1B6843B9D2
:102BC0004FF0500383F31188BFF36F8FBFF34F8F24
:102BD000FEE7464B1A68013A1A601B68002B7FD14A
:102BE000434B1B683BB900247BE0196A516015E038
:102BF000D968516021E000233E4A1268002A4AD079
:102C00003C4BDB68DB689A6AD869196A8160D869CD
:102C10004860506803F118018842E6D000219962AB
:102C20001168013911605A699868D968816098689B
:102C300048605168181D8142DAD00021596111683D
:102C400001391160DA6A012191402B4C2568294332
:102C500021602A4902EB820201EB820252689A60EB
:102C60009468DC6060609060DA6A02EB820001EBDD
:102C700080045C6151F82000013002EB820241F8CF
:102C80002200D96A1E4A1268D26A9142B4D91D4AFA
:102C900001211160B0E70BB1FFF774FC1A4B1C68FF
:102CA00094B9184B1C68E4B1154B1B684FF0E02336
:102CB0004FF08052C3F8042DBFF34F8FBFF36F8FD7
:102CC00001240EE0013C07D0FFF7B8FE0028F9D040
:102CD0000C4B01221A60F5E70B4B00221A60E0E76B
:102CE000002400F061FC204638BD00BF44030020F2
:102CF0006C0300209C03002064030020E0030020FC
:102D00006C040020580300205C030020204B1B684B
:102D10001BB1204B01221A6070471E4B00221A6023
:102D20001D4B1B68B3FA83F3DBB2C3F11F0303EB44
:102D300083018A0019498A5842B94FF0500383F33E
:102D40001188BFF36F8FBFF34F8FFEE7134803EB7C
:102D500083018A00024451684968516003EB830C87
:102D60004FEA8C020832024491420AD003EB8303FB
:102D70009A000A4B13445B68DA68094B1A601B68B7
:102D800070476246910002460A44D1685160EDE7FF
:102D9000440300205803002064030020E0030020C7
:102DA0006C04002058B110B50C46094A116818315E
:102DB000FFF752F801212046FFF74EFD10BD4FF0FE
:102DC000500383F31188BFF36F8FBFF34F8FFEE77C
:102DD0006C04002038B5D8B18C46114605464268CF
:102DE000104B1868C261186894680462186818303B
:102DF00060601868183090601B689D622B68013312
:102E00002B6009B14FF0FF3C6046FFF725FD38BD50
:102E10004FF0500383F31188BFF36F8FBFF34F8FD1
:102E2000FEE700BF6C040020C368DB68002B4DD0B8
:102E300030B49A6AD869196A8160D8694860516863
:102E400003F1180081424AD00021996211680139CA
:102E500011602D4A1268002A47D15A699868D968CA
:102E60008160986848605168181D81423AD00021FD
:102E70005961116801391160DA6A01219140234CCE
:102E8000256829432160224902EB820201EB82027C
:102E900052689A609468DC6060609060DA6A02EB65
:102EA000820001EB80045C6151F82000013002EBEC
:102EB000820241F82200DA6A164B1B68DB6A9A42EA
:102EC0001FD90120144B186030BC70474FF05003DD
:102ED00083F31188BFF36F8FBFF34F8FFEE7196A3B
:102EE0005160B1E7D9685160C1E70C4A5168D961B6
:102EF0008C681C62606088609A62116801311160A0
:102F0000D9E70020E0E700BF44030020640300206D
:102F1000E00300206C040020580300209C030020E4
:102F2000034B1B680360034B1B684360704700BF83
:102F30005403002068030020F8B5B8B10C460546DC
:102F4000E9B100F00FFB1C4B19686B68C81A2268C6
:102F5000B2F1FF3F2AD0194E36682F68B74217D01A
:102F60008B4215D800232360012420E04FF050034A
:102F700083F31188BFF36F8FBFF34F8FFEE74FF0DE
:102F8000500383F31188BFF36F8FBFF34F8FFEE7BA
:102F9000824203D800232360012408E05B1A134413
:102FA00023602846FFF7BCFF002400E0002400F067
:102FB000FBFA2046F8BD00BF680300205403002040
:102FC000014B01221A60704758030020054B1B6813
:102FD00033B1054B1B680BB10020704702207047CE
:102FE000012070476003002044030020002854D0D3
:102FF00070B504462B4B1B68834208D04FF050033A
:1030000083F31188BFF36F8FBFF34F8FFEE7836C9D
:1030100043B94FF0500383F31188BFF36F8FBFF3B1
:103020004F8FFEE7013B8364C16A426C914236D008
:103030000BB1002070BD051D2846FEF726FF38B9EC
:10304000E36A01229A4018490B6823EA02030B60E5
:10305000636CE362C3F10702A261012000FA03F28C
:1030600011490E6832430A60104A03EB830302EBF6
:1030700083035B68A3609968E1604D609D60E36ACB
:1030800003EB830102EB8105656152F821100144D5
:1030900003EB830342F82310CCE7002070470020A5
:1030A000C8E700BF6C04002064030020E003002098
:1030B000064B1A6813682BB90123036023B9D36840
:1030C000186870470023F8E700207047400500208B
:1030D00008B54160006191420CD8D21A83699A42C6
:1030E00001D3012008BD011D094B1868FEF7B4FE8D
:1030F0000020F7E79A4201D2994206D2011D054B02
:103100001868FEF7A9FE0020ECE70120EAE700BFFF
:103110003C0500204005002070B504460D461646CB
:1031200004E0A3691D44236A20469847A1692B4601
:10313000324629442046FFF7CBFF0028F1D170BD6D
:1031400070B505460E460D4B1B68DB68DC68201D1C
:10315000FEF79BFE94F8243013F0040F07D123F000
:10316000010384F82430236A2046984770BD324614
:1031700029462046FFF7D0FFF5E700BF40050020B5
:1031800008B505E0DB684FF0FF311868FFF7D8FF9E
:10319000054B1B681A68002AF4D1044A10680249DA
:1031A0000860136008BD00BF400500203C050020FA
:1031B00038B50546FFF736FC0446074B1B688342CB
:1031C00005D800232B60044B1C60204638BDFFF758
:1031D000D7FF01232B60F6E73005002070B582B0E1
:1031E00006460C46FFF716FC01A8FFF7E1FF019B1E
:1031F00033BB0546E4B9B04213D22246711B124BD1
:103200001868FFF795F9FFF7D5FCD8B94FF0E02320
:103210004FF08052C3F8042DBFF34F8FBFF36F8F71
:1032200010E0FFF7C7FC29463046FFF789FF09E0A9
:10323000064A126812680AB90124DEE71C46DCE778
:10324000FFF7B8FC02B070BD380500203C05002037
:1032500030B585B00023019302930393002201A9A6
:10326000354B1868FFF71CF8002862D0019B002B33
:10327000F4DB039C636913B1201DFEF706FE68466C
:10328000FFF796FF0546019B013B082BE6D8DFE8D8
:1032900003F00505293049050529300094F824304C
:1032A00043F0010384F82430029BA16902461944CB
:1032B0002046FFF70DFF0028D0D094F8243013F0FB
:1032C000040F07D123F0010384F82430236A204639
:1032D0009847C3E7A3692A46029919442046FFF795
:1032E0001BFFF3E794F8243023F0010384F8243023
:1032F000B4E794F8243043F0010384F824300299B1
:10330000A16131B10346024601442046FFF7E0FEC9
:10331000A4E74FF0500383F31188BFF36F8FBFF31F
:103320004F8FFEE794F8243023F0010384F8243013
:1033300094E705B030BD00BF3805002000B583B06C
:1033400001A8FFF7B5FE0199FFF748FFFFF780FFDF
:10335000F6E7000030B583B000F004F9114B1B68AC
:103360001BB100F021F903B030BD0F4D2846FEF728
:1033700065FD0E4C2046FEF761FD0D4B1D600D4BAB
:103380001C60002300930C4B0C4A0C210A20FEF712
:1033900091FE044B18600028E3D00949FFF798F824
:1033A000DFE700BF38050020580500204405002055
:1033B000400500203C05002070040020B8040020D7
:1033C0004C3C000810B588B0FFF7C4FF124B1B68D7
:1033D000CBB100240594069407AA06A905A800F01D
:1033E00027FA059B0293069B019302230093234631
:1033F000079A0A490A48FFF78DFA0A4B186010B17C
:10340000012008B010BD4FF0500383F31188BFF3C3
:103410006F8FBFF34F8FFEE738050020543C000844
:103420003D3300083405002082B0002301930D4B8A
:103430001B68B3F1FF3F08D04FF0500383F31188AE
:10344000BFF36F8FBFF34F8FFEE74FF0500383F34F
:103450001188BFF36F8FBFF34F8F019B002BFCD000
:1034600002B07047100000200000000000000000C3
:10347000074B19680868B0E8F04F80F30988BFF37C
:103480006F8F4FF0000080F311887047AFF300801A
:103490006C04002008480068006880F308884FF03A
:1034A000000080F3148862B661B6BFF34F8FBFF39C
:1034B0006F8F00DF00BF000008ED00E0000000009B
:1034C000EFF30980BFF36F8F154B1A681EF0100FD2
:1034D00008BF20ED108A20E9F04F10602DE90900A7
:1034E0004FF0500080F31188BFF34F8FBFF36F8F01
:1034F000FFF70CFC4FF0000080F3118809BC19683D
:103500000868B0E8F04F1EF0100F08BFB0EC108A4A
:1035100080F30988BFF36F8F704700BFAFF300805F
:103520006C040020DFF80C00016841F470010160B8
:103530007047000088ED00E04FF0807340F8043CD5
:1035400021F0010140F8081C054B40F80C3C40F804
:10355000202C6FF0020340F8243C4438704700BF31
:10356000293400084FF0500383F31188BFF36F8FA5
:10357000BFF34F8F0B4A136801331360012B00D048
:1035800070474FF0E023D3F8043D13F0FF0FF7D05E
:103590004FF0500383F31188BFF36F8FBFF34F8F4A
:1035A000FEE700BF10000020094B1B6843B94FF035
:1035B000500383F31188BFF36F8FBFF34F8FFEE784
:1035C000013B034A13600BB983F31188704700BFB6
:1035D0001000002008B54FF0500383F31188BFF3AB
:1035E0006F8FBFF34F8FFFF729FA28B14FF0E02319
:1035F0004FF08052C3F8042D002383F3118808BDD7
:103600004FF0E022002313619361054B1B680549CD
:10361000A1FB03139B09013B53610723136170470F
:1036200008000020D34D62104FF0E023D3F8002DA6
:103630005A4B9A4217D04FF0E023D3F8002D584B45
:103640009A4219D04FF0E023D3F8083DD96A554A81
:1036500091421AD04FF0500383F31188BFF36F8F5C
:10366000BFF34F8FFEE74FF0500383F31188BFF392
:103670006F8FBFF34F8FFEE74FF0500383F3118836
:10368000BFF36F8FBFF34F8FFEE79A6B464B9A42A3
:1036900008D04FF0500383F31188BFF36F8FBFF34F
:1036A0004F8FFEE730B583B0002301933F4B1A786C
:1036B000D2B28DF80220FF221A701B78DBB28DF88F
:1036C00003309DF8033003F05003394A137043B9B7
:1036D0004FF0500383F31188BFF36F8FBFF34F8F09
:1036E000FEE79DF80330DB4313F0500F08D04FF096
:1036F000500383F31188BFF36F8FBFF34F8FFEE743
:103700009DF8033013F0800F09D0019B0133019322
:103710009DF803305B00DBB28DF80330F0E7019BCE
:10372000082B36D0019BC3F10703224A1360214ABC
:1037300013681B02136003F4E06313609DF802300A
:10374000DBB21A4A13704FF0E024D4F8203D43F462
:103750007F03C4F8203DD4F8203D43F07F43C4F8F4
:10376000203D0025C4F81C5DFFF74AFF124B1D6089
:10377000FFF7D8FED4F8343F43F04043C4F8343F59
:10378000FFF788FEFFF7C2FAFFF74EFE284603B0A8
:1037900030BD084B00221A60C9E700BF71C20F415B
:1037A00070C20F4171340008C134000800E400E029
:1037B000700500206C05002010000020EFF3058349
:1037C0000F2B0FD9114A9B5CDBB2114A12789A4237
:1037D00008D94FF0500383F31188BFF36F8FBFF305
:1037E0004F8FFEE74FF0E023D3F80C3D03F4E06386
:1037F000084A1268934208D94FF0500383F31188A6
:10380000BFF36F8FBFF34F8FFEE77047F0E300E029
:10381000700500206C050020034B0360034B0B6018
:1038200080231360704700BFC80B0020C809002028
:10383000034B0360034B0B604FF4807313607047BE
:10384000740900207405002070B586B00023019330
:1038500002930393049305930268174B9A4201D095
:1038600006B070BD03F5D633DA6C42F00102DA64BB
:10387000DB6C03F001030093009B4FF400630193A2
:103880000226029601230393032504950924059437
:1038900001A94FF09040FDF79BFA4FF4805301933C
:1038A0000296002303930495059401A94FF09040DC
:1038B000FDF78EFAD4E700BF0064004010B58AB06F
:1038C00004462022002102A800F076F9002301938B
:1038D0002268104B9A420DD0019B4BB14FF0E02370
:1038E0004FF08052C3F8042DBFF34F8FBFF36F8F9B
:1038F0000AB010BD01AA02A9074B1868FEF77FFDA8
:103900000128E9D16B4608AA02A92046FCF775FFF9
:10391000E2E700BF00640040A40D002030B583B092
:103920000268154B9A4207D000242546FFF78CFF0A
:1039300005B17CB903B030BD03F5D6339A6D42F0C2
:1039400000729A659B6D03F000730193019B142430
:103950001325EBE7002205212846FDF725FA284626
:10396000FDF732FA002205212046FDF71DFA204618
:10397000FDF72AFADEE700BF0064004070B582B0B0
:103980000268184B9A4203D00025284602B070BD49
:1039900004460E4600230093134B144A20210A20AC
:1039A000FEF788FB124B18602046FCF7CFFD05465A
:1039B00008B10025E9E731462046FCF76DFE0646D2
:1039C0000028E2D101212046FDF75AF8054608B14A
:1039D0003546DAE702212046FDF752F80028D4D117
:1039E0000125D2E7006400405C0D00201C0C002083
:1039F000A40D002008B5FCF7D2FE08B9012008BDCF
:103A00000020FCE7F0B589B006460C4615461F4677
:103A1000FFF7A8FD3046FCF765FF70B16B462A46FC
:103A200021463046FCF7E9FE18B9FFF7BDFD02203C
:103A300026E0FFF7B9FD002022E0FFF7B5FD2022C8
:103A40000021684600F0B8F8EE46A446BCE80F0036
:103A5000AEE80F009CE803008EE80300002108E0B8
:103A600015F801C001F120030DEB030404F808CCA4
:103A700001310729F4DD3268084B9A4202D0022056
:103A800009B0F0BD00233A46694605480068FEF7D4
:103A900043FB0128F3D00020F2E700BF00640040A0
:103AA000A40D002008B5FFF709FF08BD08B5FFF712
:103AB00005FF08BD08B5FFF701FF08BD10B58AB0C6
:103AC00004462422002101A800F076F808AB01AAE0
:103AD00000212046FCF71FFF0028F7D00AB010BDD8
:103AE00008B5024B1868FCF7E6FF08BD140000207B
:103AF00008B5024B1868FCF7DEFF08BD1400002073
:103B0000DFF834D0FEF7D2F80C480D490D4A0023F7
:103B100002E0D458C4500433C4188C42F9D30A4A82
:103B20000A4C002301E013600432A242FBD300F0F0
:103B300011F8FCF79DFCFEE700C00020000000200B
:103B400040000020703C000840000020A80D00202C
:103B5000FEE7000070B50D4D0D4C641BA41000264F
:103B6000A64209D10B4D0C4C00F02EF8641BA4109A
:103B70000026A64205D170BD55F8043B9847013692
:103B8000EEE755F8043B98470136F2E7603C000841
:103B9000603C0008603C0008643C00080A44914214
:103BA00000F1FF3300D1704710B511F8014B03F855
:103BB000014F9142F9D110BD02440346934200D116
:103BC000704703F8011BF9E7F8B500BFF8BC08BC63
:103BD0009E467047F8B500BFF8BC08BC9E467047CB
:103BE00063616E207461736B00000000636F6E741C
:103BF0006163746F72207461736B0000A0860100B2
:103C0000400D0300801A060000350C0040420F00F2
:103C100080841E0000093D0000127A000024F40098
:103C200000366E010048E801006CDC020000000074
:103C30000102030400000000000000000102030470
:103C40000607080949444C4500000000546D7251B4
:103C500000000000546D72205376630000000000E5
:083C6000F9010008000000005A
:083C6800D1010008000000007A
:103C7000010000001000000000093D0006000000E7
:103C8000AAAAAAAA180000200064004000000000B0
:103C90000000000000000000000000000000000024
:103CA0000000000000000000000000000000000014
:0400000508003B01B3
:00000001FF
