:020000040800F2
:1000000000C0002095270008E5270008E527000824
:10001000E5270008E5270008E527000800000000A4
:1000200000000000000000000000000001230008A4
:10003000E52700080000000051230008652400089F
:10004000E5270008E5270008E5270008E527000860
:10005000E5270008E5270008E5270008E527000850
:10006000E5270008E5270008E5270008E527000840
:10007000E5270008E5270008E5270008E527000830
:10008000E5270008E5270008E52700087527000890
:1000900085270008E5270008E5270008E527000870
:1000A000E5270008A50F0008E5270008E527000858
:1000B000E52700080000000000000000E527000818
:1000C000E52700080000000000000000E527000808
:1000D00000000000E5270008E527000800000000F8
:1000E000E5270008E52700080000000000000000E8
:1000F0000000000000000000000000000000000000
:10010000000000000000000000000000E5270008DB
:100110000000000000000000E5270008E5270008B7
:10012000E5270008E5270008E5270008E52700087F
:10013000E5270008000000000000000000000000AB
:10014000E5270008E5270008E5270008E52700085F
:10015000E5270008E5270008E5270008E52700084F
:10016000E5270008E5270008E52700080000000053
:10017000E5270008E5270008000000000000000057
:10018000E5270008E5270008E52700080000000033
:100190000348044B834202D0034B03B11847704716
:1001A0004000002040000020000000000548064BF1
:1001B0001B1AD90F01EBA301491002D0034B03B165
:1001C0001847704740000020400000200000000059
:1001D00010B5064C237843B9FFF7DAFF044B13B18F
:1001E0000448AFF300800123237010BD40000020BD
:1001F000000000005C28000808B5054B1BB105494C
:100200000548AFF30080BDE80840FFF7CFBF00BF4F
:1002100000000000440000205C280008FEE7000009
:1002200080B500F0F1F8264B18604FF400714FF0E4
:10023000904000F087FC234D686008214FF090400B
:1002400000F080FCA860204E1021304600F07AFCBF
:100250001E4CA06001214FF0904000F073FCE06064
:10026000AB6863602021304600F06CFC184FB8602A
:1002700080214FF0904000F065FCF86010214FF0B5
:10028000904000F05FFC78606B68EB60636823610E
:100290002021304600F056FC38612A7B02214FF0C5
:1002A000904000F056FC227C0821304600F051FCC2
:1002B000012240214FF0904000F04BFCB1E700BF1D
:1002C000B0020020F402002000040048D402002004
:1002D000B402002070B588B00024039404940594FF
:1002E00006940794284BDA6C42F00402DA64DA6C64
:1002F00002F004020092009ADA6C42F00102DA6421
:10030000DA6C02F001020192019ADA6C42F0020208
:10031000DA64DB6C03F002030293029B224640F294
:1003200089714FF0904000F014FC184D22460821CE
:10033000284600F00EFC162303930494059403A9A9
:100340004FF0904000F026FB40F2897303930126A2
:1003500004960594069403A94FF0904000F01AFB10
:100360000823039304960594069403A9284600F0F5
:1003700011FB302303930494059403A9284600F04D
:1003800009FB08B070BD00BF001002400004004827
:1003900000B585B000F01CF800F08EFDFFF79AFF65
:1003A000074B0293074B0193022300930023802203
:1003B0000549064801F05CFA01F0A4FAFFF72EFFA8
:1003C0005C0200205C000020782800082102000860
:1003D00010B5032000F0B8FA0F2000F08DFD10B129
:1003E0000124204610BD044600F066FDF9E7000038
:1003F000034B1B78034A11680B441360704700BF1E
:100400000000002010030020014B1868704700BF57
:100410001003002030B590F820C00468A4680CF1E7
:10042000FF3C5FFA8CFCBCF1010F62D814F0E05F76
:1004300059D0C4F3016C012404FA0CF41C608B68DD
:10044000002B3DD10D68CB68046843EA45550CF19B
:1004500018031B01E55003680C690CF1180E03EB3F
:100460000E135C600B7D012B35D0D17993791B0481
:1004700043EA0163517943EA012314790168234374
:1004800001EB0C11C1F88C31D17893781B0443EA4D
:100490000163517843EA0123117802680B4302EBB0
:1004A0000C12C2F8883102680CF1180C4FEA0C1CCF
:1004B00052F80C3043F0010342F80C3000201DE0EC
:1004C0004C6843EAC403CC6823430CF118042401AC
:1004D00005682B51BFE7036803EB0E13596841F41D
:1004E00080715960C1E7436A43F4001343620120FD
:1004F00004E0436A43F480234362012030BD90F856
:1005000020C00CF1FF3C5FFA8CFCBCF1010F00F243
:10051000A58030B451B90468E46814F0030F10D119
:10052000436A43F40013436201207EE004682469B7
:1005300014F0030F05D1436A43F400134362012012
:1005400073E0056801F11B0424012C5904F0040434
:100550009460002C6BD1056801F11B0424012C5917
:10056000640D1460046801F11B0C4FEA0C1C54F874
:100570000C4004F00204D4600468A444DCF8045085
:1005800015F0080F5BD008241461046801F11B0CFE
:1005900004EB0C146468C4F307249461046804EB4E
:1005A0000C146468240C5461026802EB0112D2F846
:1005B000B8211A70026802EB0112D2F8B821C2F316
:1005C00007225A70026802EB0112D2F8B821C2F376
:1005D00007429A70026802EB0112D2F8B821120E9B
:1005E000DA70026802EB0112D2F8BC211A710268BB
:1005F00002EB0112D2F8BC21C2F307225A71026841
:1006000002EB0112D2F8BC21C2F307429A710268D0
:1006100002EB0112D2F8BC21120EDA71C1B90268E4
:10062000D36843F02003D360002030BC70470568D6
:1006300001F11B0424012C59E408546092E701F1F4
:100640001B0504EB0514646804F00F0414619CE7B7
:100650000268136943F020031361E5E7436A43F43A
:10066000802343620120704770477047704770478E
:10067000704770477047704770472DE9F84F05463F
:1006800003685C69D3F804809F68D3F80CB0D3F892
:1006900010A0D3F8189014F001063BD017F0010613
:1006A00016D001229A6017F0020F08D117F0040F3C
:1006B0000CD117F0080606D04FF4805608E002F07F
:1006C0003BF8002604E0FFF7CFFF01E04FF400669F
:1006D00017F4807F0DD02B684FF480729A6017F466
:1006E000007F40F0868017F4806F00F0868046F42B
:1006F000005617F4803F0DD02B684FF480329A607B
:1007000017F4003F40F0838017F4802F00F08380BF
:1007100046F4004614F0080F07D01BF0100F04D069
:1007200046F400762B681022DA6014F0040F02D031
:100730001BF0080F79D114F0020F04D02B68DB688E
:1007400013F0030F78D114F0400F07D01AF0100FF8
:1007500004D046F480662B6810221A6114F0200F32
:1007600002D01AF0080F6BD114F0100F04D02B68D0
:100770001B6913F0030F6AD114F4003F02D018F084
:10078000100F68D114F4803F02D018F0080F69D11F
:1007900014F4004F7AD018F0040F74D014F4807F52
:1007A00004D019F0010F01D046F0010614F4007FC7
:1007B00004D019F0020F01D046F0020614F4806F45
:1007C00004D019F0040F01D046F0040614F4006FB1
:1007D00059D019F0700956D0B9F1400F65D058D8EA
:1007E000B9F1200F5ED0B9F1300F42D146F02006AA
:1007F00044E0284601F0A4FF7BE717F4006F02D025
:1008000046F4804675E72846FFF72FFF71E7284634
:1008100001F09AFF7EE717F4002F02D046F48036ED
:1008200078E72846FFF722FF74E72B680822DA6092
:100830002846FFF71CFF7EE7284601F089FF82E784
:100840002B6808221A612846FFF713FF8CE7284619
:10085000FFF70EFF90E72B6810225A602846FFF73B
:1008600009FF8FE72B6808225A602846FFF703FF2D
:100870008EE7B9F1100F01D146F008062A68936996
:1008800023F0700393612B6804225A609EB9BDE87F
:10089000F88FB9F1500F0BD0B9F1600FEED146F4DB
:1008A0008076EBE746F01006E8E746F04006E5E71D
:1008B00046F08006E2E76B6A33436B622846FFF737
:1008C000DBFEE4E7002807DB00F01F0240090123FC
:1008D0009340024A42F82030704700BF00E100E038
:1008E000002808DB0901C9B200F1604000F5614051
:1008F00080F80013704700F00F000901C9B2014BE6
:100900001954704714ED00E000B500F00700C0F185
:10091000070CBCF1040F28BF4FF0040C031D062B7D
:100920000FD9C31E4FF0FF3E0EFA0CF021EA000172
:1009300099400EFA03FE22EA0E0241EA02005DF837
:1009400004FB0023EEE70000074AD36823F4E063CA
:100950001B041B0C000200F4E060034343F0BF6380
:1009600043F40033D360704700ED00E010B5044657
:10097000054BD868C0F30220FFF7C6FF01462046AA
:10098000FFF7AEFF10BD00BF00ED00E008B5FFF7B8
:1009900099FF08BDF0B583B0002362E085685E0072
:1009A0000324B44025EA0405CC68B4402C43846099
:1009B000456825EA0C054C68C4F300149C402C43A0
:1009C00044605FE0DD08083550F8254003F0070C6F
:1009D0004FEA8C0C4FF00F0E0EFA0CFE24EA0E0EAE
:1009E0000C6904FA0CF444EA0E0440F8254060E077
:1009F000022400E0002404FA0EF42C430CF1020C53
:100A00004C4D45F82C404C4CA568D44325EA0206D1
:100A10004F6817F4801F01D042EA0506464DAE60CC
:100A2000ED6804EA05064F6817F4001F01D042EA9A
:100A30000506414DEE606D6804EA05064F6817F43F
:100A4000003F01D042EA05063B4D6E602D682C4008
:100A50004E6816F4803F01D042EA0504364A14601D
:100A600001330A6832FA03F462D04FF0010C0CFA39
:100A700003FC1CEA0202F3D04C6804F00304013CBE
:100A8000012C8BD94C6804F00304032C0CD0C468EF
:100A90005D004FF0030C0CFA05FC24EA0C0C8C688A
:100AA000AC4044EA0C04C4604C6804F00304022C1B
:100AB00088D004684FEA430E4FF0030C0CFA0EFC8A
:100AC00024EA0C0C4C6804F0030404FA0EF444EA23
:100AD0000C0404604C6814F4403FC1D0174C256EE0
:100AE00045F001052566246E04F001040194019C83
:100AF0004FEA930C0CF102050E4C54F8255003F00C
:100B0000030E4FEA8E0E0F2404FA0EF425EA0405B4
:100B1000B0F1904F3FF46EAF094CA04206D004F5FF
:100B20008064A0423FF464AF072464E7012462E7D5
:100B300003B0F0BD0000014000040140001002407D
:100B4000000400480369194201D0012070470020C9
:100B500070470AB18161704781627047014B186824
:100B6000704700BF0800002008B5FFF7F7FF054BEE
:100B70009B68C3F3C223044AD35C03F01F03D8402D
:100B800008BD00BF00100240882800080F23036042
:100B90000B4B9A6802F0030242609A6802F0F0027E
:100BA00082609A6802F4E062C2609B68DB0803F42A
:100BB000E0630361034B1B6803F007030B6070479E
:100BC00000100240002002407047000090F83D30C5
:100BD000DBB2012B26D1022380F83D300268D368B6
:100BE00043F00103D3600368114A93420CD0B3F180
:100BF000804F09D002F5A052934205D01A6842F006
:100C000001021A600020704799680A4A0A40062AC1
:100C10000AD0B2F5803F09D01A6842F001021A608A
:100C20000020704701207047002070470020704767
:100C3000002C014007000100704770477047704763
:100C400070B504460368DE681D6915F0020F10D008
:100C500016F0020F0DD06FF002021A610123037724
:100C600003689B6913F0030F64D0FFF7E6FF0023CE
:100C7000237715F0040F12D016F0040F0FD023685D
:100C80006FF004021A610223237723689B6913F42F
:100C9000407F55D02046FFF7D0FF0023237715F083
:100CA000080F12D016F0080F0FD023686FF008025B
:100CB0001A61042323772368DB6913F0030F46D0FE
:100CC0002046FFF7BAFF0023237715F0100F12D04C
:100CD00016F0100F0FD023686FF010021A6108236E
:100CE00023772368DB6913F4407F37D02046FFF772
:100CF000A4FF0023237715F0010F02D016F0010F97
:100D000033D115F4025F02D016F0800F35D115F4FF
:100D1000807F02D016F0800F37D115F0400F02D03F
:100D200016F0400F39D115F0200F02D016F0200F29
:100D30003BD170BDFFF780FF2046FFF77FFF96E7AE
:100D40002046FFF779FF2046FFF778FFA5E720460A
:100D5000FFF772FF2046FFF771FFB4E72046FFF769
:100D60006BFF2046FFF76AFFC3E723686FF00102BD
:100D70001A61204600F00AF9C3E723686FF40252B3
:100D80001A61204600F08BF8C1E723686FF4807287
:100D90001A61204600F084F8BFE723686FF0400234
:100DA0001A612046FFF74BFFBDE723686FF0200272
:100DB0001A61204600F072F8BBE7000003681E4A83
:100DC000904202D0B0F1804F03D123F070034A6803
:100DD0001343194A90420AD0B0F1804F07D002F570
:100DE000A052904203D002F58062904203D123F4D6
:100DF0004073CA68134323F080034A6913430360B6
:100E00008B68C3620B6883620B4B984207D003F573
:100E1000A053984203D003F58063984201D10B6937
:100E2000036301234361036913F0010F03D00369D6
:100E300023F0010303617047002C014060B310B53B
:100E4000044690F83D3013B3022384F83D30214628
:100E500051F8040BFFF7B2FF012384F8483084F8FF
:100E60003E3084F83F3084F8403084F8413084F8D4
:100E7000423084F8433084F8443084F8453084F8B4
:100E8000463084F8473084F83D30002010BD80F8AB
:100E90003C30FFF799FED7E7012070477047704755
:100EA00070470000034AD2F8883043F47003C2F858
:100EB0008830704700ED00E000B583B00D4B1A6E2E
:100EC00042F001021A661A6E02F001020092009AC4
:100ED0009A6D42F080529A659B6D03F080530193A6
:100EE000019B00220F216FF00100FFF73FFD03B0CF
:100EF0005DF804FB0010024030B589B004461E4B7B
:100F00001A6E42F400621A661B6E03F400630193CA
:100F1000019B02A903A8FFF739FEFFF725FE174A38
:100F2000A2FB00239B0C013B1548164A026040F2CD
:100F3000E732C26043600023036183608361FFF78F
:100F40007DFF054610B1284609B030BD0C48FFF7BB
:100F50003DFE05460028F6D11920FFF717FD0F2C9E
:100F600001D90125EFE7002221461920FFF7FEFCF9
:100F7000054B1C60E7E700BF0010024083DE1B4307
:100F800014030020002C01400400002008B5026872
:100F9000034B9A4200D008BDFFF72AFAFBE700BFD7
:100FA000002C014008B50248FFF74AFE08BD00BF0B
:100FB0001403002000F1080343604FF0FF32826009
:100FC000C36003610023036070470023036170471F
:100FD00030B40D68B5F1FF3F11D000F108031C4695
:100FE0005B681A68AA42FAD963684B6099608C60A2
:100FF0006160086103680133036030BC70470469B5
:10100000F2E70369416882688A60416851605A6802
:10101000824205D0002202611868013818607047CA
:1010200082685A60F6E710B5044601F0E3F9A36B55
:1010300023B9012401F000FA204610BD0024F9E78D
:101040000346026C6AB110B50846D9681144D960EC
:101050009C68A14201D31968D960D96801F0E8FB06
:1010600010BD704738B5054601F0C4F995F8454004
:1010700064B201E0013C64B2002C0ADD6B6A43B14A
:1010800005F1240000F07EFE0028F3D000F046FFBA
:10109000F0E7FF2385F8453001F0CEF901F0AAF919
:1010A00095F8444064B201E0013C64B2002C0ADDD2
:1010B0002B6943B105F1100000F064FE0028F3D065
:1010C00000F02CFFF0E7FF2385F8443001F0B4F97D
:1010D00038BD38B590B10D460446C36B2BB1026CD8
:1010E0000021A2FB032393B999B14FF0500383F37E
:1010F0001188BFF36F8FBFF34F8FFEE74FF05003A0
:1011000083F31188BFF36F8FBFF34F8FFEE7012189
:10111000EAE701F06FF92368E26B216C01FB023012
:10112000A0600020A0636360013A02FB0133E3602A
:10113000FF2384F8443084F84530B5B923691BB9DE
:1011400001F07AF9012038BD04F1100000F01AFE18
:101150000028F5D04FF0E0234FF08052C3F8042D63
:10116000BFF34F8FBFF36F8FEAE704F11000FFF773
:1011700021FF04F12400FFF71DFFE1E710B503464E
:1011800002980C4631B90060C36304640121FFF783
:10119000A0FF10BD0260F7E773B110B584B01C4624
:1011A00008B192B199B94FF0500383F31188BFF39E
:1011B0006F8FBFF34F8FFEE74FF0500383F311881B
:1011C000BFF36F8FBFF34F8FFEE70029EBD14823AA
:1011D0000393039B482B08D04FF0500383F31188EF
:1011E000BFF36F8FBFF34F8FFEE7039B00949DF813
:1011F0001830FFF7C3FF204604B010BDF0B585B02E
:10120000019290B10F460446C1B100F08DFE064632
:1012100000BB019B002B5ED04FF0500383F311887D
:10122000BFF36F8FBFF34F8FFEE74FF0500383F391
:101230001188BFF36F8FBFF34F8FFEE7036C002B56
:10124000E3D04FF0500383F31188BFF36F8FBFF3E8
:101250004F8FFEE700263EE039462046FFF7F0FEBE
:10126000013DA563236923B901F0E6F8012005B02B
:10127000F0BD04F1100000F085FD0028F4D04FF01F
:10128000E0234FF08052C3F8042DBFF34F8FBFF31C
:101290006F8FE9E701F0D0F80020E8E702A800F03E
:1012A000EDFD012621E0002384F8443029E00023ED
:1012B00084F845302BE02046FFF7D4FE00F028FCF0
:1012C00009E02046FFF7CEFE00F022FC2046FFF7A3
:1012D000AAFE00283FD101F08DF8A56B002DBBD1EF
:1012E000019B002BD6D0002ED8D001F0A5F800F03D
:1012F0003FFB01F07FF894F844305BB2B3F1FF3F5D
:10130000D1D094F845305BB2B3F1FF3FCFD001F0BC
:1013100093F801A902A800F0BDFD0028D1D1204614
:10132000FFF781FE0028C6D0019904F1240000F0E7
:10133000E7FC2046FFF796FE00F0EAFB0028CAD142
:101340004FF0E0234FF08052C3F8042DBFF34F8FCE
:10135000BFF36F8FBFE7002089E72DE9F843B0B1F5
:101360000E4690460446D9B101F070F9EFF31185AD
:101370004FF0500383F31188BFF36F8FBFF34F8F8C
:10138000A76BCFB9002085F31188BDE8F8834FF033
:10139000500383F31188BFF36F8FBFF34F8FFEE7C6
:1013A000036C002BE0D04FF0500383F31188BFF3A0
:1013B0006F8FBFF34F8FFEE794F844904FFA89F98F
:1013C00031462046FFF73CFE7B1EA363B9F1FF3F89
:1013D0000FD123690BB90120D5E704F1100000F00B
:1013E000D1FCE8B1B8F1000F1CD00120C8F8000012
:1013F000C9E700F0CBFA814516D2B9F17F0F06D0CC
:1014000009F101035BB284F844300120BBE74FF0DF
:10141000500383F31188BFF36F8FBFF34F8FFEE745
:101420000120B0E70120AEE70120ACE728B110B4FD
:10143000044631B3002003460DE04FF0500383F320
:101440001188BFF36F8FBFF34F8FFEE70E4800EB9D
:10145000C30014E00133072B10D80B4A02EBC30280
:101460005268A242F2D00028F4D1074A52F8332041
:10147000002AEFD1044800EBC300EBE708B101609C
:1014800044605DF8044B70476003002070B504466B
:101490000D46164600F0AEFF94F844305BB2B3F14F
:1014A000FF3F0DD094F845305BB2B3F1FF3F0BD056
:1014B00000F0C2FFA36B5BB12046FFF7D3FD70BD08
:1014C000002384F84430EDE7002384F84530EFE74B
:1014D0003246294604F1240000F02AFCECE7000023
:1014E000074B1B681B6823B9064B4FF0FF321A608D
:1014F0007047034B1B68DB681A68024B1A60704721
:1015000010040020A80300202DE9F041074698466A
:10151000069E089C206B02F18043013B00EB830098
:1015200020F0070571B10B4600220F2A07D8995CFD
:1015300004EB020C8CF8341009B10132F5E70023FA
:1015400084F84330062E08D94FF0500383F31188F6
:10155000BFF36F8FBFF34F8FFEE7E6626664201D17
:10156000FFF733FD04F11800FFF72FFD2461C6F1EA
:101570000706A661646242463946284600F024FF09
:101580002060079B03B11C60BDE8F0812DE9F041AC
:1015900086B00D9F9FB180460E4615461C460E9B99
:1015A000B3B154230593059B542B1AD04FF050032D
:1015B00083F31188BFF36F8FBFF34F8FFEE74FF0B8
:1015C000500383F31188BFF36F8FBFF34F8FFEE794
:1015D0004FF0500383F31188BFF36F8FBFF34F8F2A
:1015E000FEE7059B542200210E9801F02FF90E9B77
:1015F0001F63002303930E9B02930F9B01930C9B8D
:10160000009323462A4631464046FFF77DFF0E9859
:1016100006B0BDE8F081000038B5002407E004EB17
:10162000840293000E481844FFF7C4FC0134062CD2
:10163000F5D90C4D2846FFF7BDFC0B4C2046FFF7B3
:10164000B9FC0A48FFF7B6FC0948FFF7B3FC0948A4
:10165000FFF7B0FC084B1D60084B1C6038BD00BF95
:101660003C0400202804002014040020F80300207B
:10167000E4030020CC030020100400200C04002010
:1016800010B5044600F0B6FE2A4A13680133136011
:10169000294B1B685BB1294B1B686BB9264B1B6838
:1016A000DA6AE36A9A4207D8234B1C6004E0224BB3
:1016B0001C601368012B39D0214A13680133136071
:1016C000E36A01229A401F49086802430A601E4AE1
:1016D00003EB830302EB83035B68A3609868E0601D
:1016E000211D41609960E36A03EB830102EB8100F5
:1016F000606152F82110013103EB830342F823109B
:1017000000F09AFE0D4B1B687BB10B4B1B68DA6A2D
:10171000E36A9A4209D24FF0E0234FF08052C3F8B7
:10172000042DBFF34F8FBFF36F8F10BDFFF774FF12
:10173000C2E700BFC8030020C8040020BC0300208B
:10174000AC030020C00300203C04002008B511E0D9
:1017500000F050FE0A4BDB68D8680430FFF751FCFC
:10176000084A1368013B1360074A1368013B136082
:1017700000F062FE044B1B68002BE9D108BD00BFDE
:10178000E4030020C8030020E003002008B5FFF7B1
:10179000DDFF074B1B68012BF9D94FF0E0234FF019
:1017A0008052C3F8042DBFF34F8FBFF36F8FEEE766
:1017B0003C0400202DE9F04104460D46254B1E68EF
:1017C000254B1F68254BD3F80080254B1868043043
:1017D000FFF717FC48B9224B1B68DB6A01229A40CD
:1017E00020490B6823EA02030B60B4F1FF3F0DD0E0
:1017F00034441B4B1B685C60A6421DD9184B19680A
:1018000004314046FFF7E4FBBDE8F081002DEFD046
:10181000154A5168124B1868816018688C68C4605A
:101820001868043060601868043088601B685A616A
:10183000136801331360E7E7094B19680431384630
:10184000FFF7C6FB094B1B68A342DDD9074B1C60A1
:10185000DAE700BFC4030020100400200C040020BD
:10186000C8040020C0030020CC030020A8030020EF
:1018700010B586B00024059405AC03940A9C02942C
:10188000099C0194089C0094FFF780FE08B1FFF7C3
:10189000F7FE059806B010BD30B58DB000230F2BB4
:1018A00009DC154AD25C03F13001694401F8102CBF
:1018B0000AB10133F3E70024002C02DD01200DB052
:1018C00030BD00250595069507AA06A905A800F0D4
:1018D000EBFE059B0293069B019300952B46079A0E
:1018E00008A90648FFF7C4FF054B43F8240008B1D8
:1018F0000134E1E70020E2E7902800088D17000896
:10190000A403002008B5FFF7C7FF012805D0B0F1F8
:10191000FF3F1BD0124B1B6808BD00F09FFC012845
:10192000F5D14FF0500383F31188BFF36F8FBFF3EE
:101930004F8F0C4B4FF0FF321A600B4B01221A6095
:101940000A4B00221A6000F0B7FDE3E74FF05003A6
:1019500083F31188BFF36F8FBFF34F8FFEE700BF94
:101960000C000020A8030020BC030020C4030020BA
:10197000024A136801331360704700BFA0030020C0
:10198000014B1868704700BFC4030020014B186862
:10199000704700BFC8030020F8B5524B1B68002BEE
:1019A00040F09980504B1C6801341C60C4B94F4B07
:1019B0001B681B6843B14FF0500383F31188BFF3DA
:1019C0006F8FBFF34F8FFEE7484A1168484B186886
:1019D00010601960474A136801331360FFF780FDF8
:1019E000454B1B68A34211D90020444B1B68DB6A9E
:1019F00003EB83039A00424B9B58012B00D9012033
:101A0000404B1B68002B6BD0012069E0002037E0C1
:101A1000394B4FF0FF321A60E7E7374B1A60E4E7C3
:101A2000D968516042E00021996211680139116062
:101A3000DA6A01219140344E3768394331603049C8
:101A400002EB82024FEA820C8C44DCF804209A609C
:101A50009668DE6075609560DA6A02EB820C4FEA88
:101A60008C056E185E614D5901354FEA8C0C41F8BA
:101A70000C50DA6A214B1B68DB6A9A4200D90120BC
:101A80001A4B1B681B68002BC2D0184B1B68DB6805
:101A9000DB685A689442C0D35A699D68D968A960C6
:101AA0009D684D6051681D1DA942B9D00021596142
:101AB0001168013911609A6A002AB9D0DE69196A81
:101AC000B160DE694E60566803F118018E42AAD1FA
:101AD000196A5160A7E70D4A1368013313600020AB
:101AE000F8BD00BFA0030020C403002010040020A4
:101AF0000C040020B0030020A8030020C80400202C
:101B00003C040020B4030020C0030020B8030020E0
:101B100038B500F06FFC4C4B1B6843B94FF05003D5
:101B200083F31188BFF36F8FBFF34F8FFEE7464BF0
:101B30001A68013A1A601B68002B7FD1434B1B685F
:101B40003BB900247BE0196A516015E0D968516007
:101B500021E000233E4A1268002A4AD03C4BDB6851
:101B6000DB689A6AD869196A8160D86948605068E8
:101B700003F118018842E6D0002199621168013909
:101B800011605A699868D96881609868486051689E
:101B9000181D8142DAD000215961116801391160A4
:101BA000DA6A012191402B4C2568294321602A499A
:101BB00002EB820201EB820252689A609468DC6058
:101BC00060609060DA6A02EB820001EB80045C6185
:101BD00051F82000013002EB820241F82200D96A5C
:101BE0001E4A1268D26A9142B4D91D4A012111607D
:101BF000B0E70BB1FFF774FC1A4B1C6894B9184B93
:101C00001C68E4B1154B1B684FF0E0234FF0805285
:101C1000C3F8042DBFF34F8FBFF36F8F01240EE085
:101C2000013C07D0FFF7B8FE0028F9D00C4B012289
:101C30001A60F5E70B4B00221A60E0E7002400F081
:101C4000FBFB204638BD00BFA0030020C8030020D6
:101C5000F8030020C00300203C040020C80400203A
:101C6000B4030020B8030020204B1B681BB1204B9D
:101C700001221A6070471E4B00221A601D4B1B6820
:101C8000B3FA83F3DBB2C3F11F0303EB83018A00D2
:101C900019498A5842B94FF0500383F31188BFF3B2
:101CA0006F8FBFF34F8FFEE7134803EB83018A006A
:101CB000024451684968516003EB830C4FEA8C027F
:101CC0000832024491420AD003EB83039A000A4B84
:101CD00013445B68DA68094B1A601B6870476246F8
:101CE000910002460A44D1685160EDE7A00300204C
:101CF000B4030020C00300203C040020C8040020DE
:101D000058B110B50C46094A11681831FFF760F94F
:101D100001212046FFF74EFD10BD4FF0500383F325
:101D20001188BFF36F8FBFF34F8FFEE7C804002009
:101D300038B5D8B18C46114605464268104B186834
:101D4000C261186894680462186818306060186886
:101D5000183090601B689D622B6801332B6009B1BD
:101D60004FF0FF3C6046FFF725FD38BD4FF05003B4
:101D700083F31188BFF36F8FBFF34F8FFEE700BF70
:101D8000C8040020C368DB68002B4DD030B49A6AC9
:101D9000D869196A8160D8694860516803F11800F0
:101DA00081424AD0002199621168013911602D4A9F
:101DB0001268002A47D15A699868D9688160986882
:101DC00048605168181D81423AD00021596111685C
:101DD00001391160DA6A01219140234C25682943B9
:101DE0002160224902EB820201EB820252689A6072
:101DF0009468DC6060609060DA6A02EB820001EB5C
:101E000080045C6151F82000013002EB820241F84D
:101E10002200DA6A164B1B68DB6A9A421FD901203E
:101E2000144B186030BC70474FF0500383F3118897
:101E3000BFF36F8FBFF34F8FFEE7196A5160B1E7B1
:101E4000D9685160C1E70C4A5168D9618C681C623D
:101E5000606088609A62116801311160D9E70020E2
:101E6000E0E700BFA0030020C00300203C040020E6
:101E7000C8040020B4030020F8030020034B1B68B3
:101E80000360034B1B684360704700BFB003002032
:101E9000C4030020F8B5B8B10C460546E9B100F01E
:101EA000A9FA1C4B19686B68C81A2268B2F1FF3F87
:101EB0002AD0194E36682F68B74217D08B4215D8F2
:101EC00000232360012420E04FF0500383F31188A6
:101ED000BFF36F8FBFF34F8FFEE74FF0500383F3D5
:101EE0001188BFF36F8FBFF34F8FFEE7824203D895
:101EF00000232360012408E05B1A13442360284672
:101F0000FFF7BCFF002400E0002400F095FA204613
:101F1000F8BD00BFC4030020B0030020014B012224
:101F20001A607047B4030020054B1B6833B1054BA2
:101F30001B680BB1002070470220704701207047DA
:101F4000BC030020A0030020064B1A6813682BB9BD
:101F50000123036023B9D368186870470023F8E7AA
:101F6000002070479C05002008B541600061914247
:101F70000CD8D21A83699A4201D3012008BD011DF1
:101F8000094B1868FFF724F80020F7E79A4201D2BE
:101F9000994206D2011D054B1868FFF719F8002079
:101FA000ECE70120EAE700BF980500209C0500202F
:101FB00070B504460D46164604E0A3691D44236A25
:101FC00020469847A1692B46324629442046FFF710
:101FD000CBFF0028F1D170BD70B505460E460D4B04
:101FE0001B68DB68DC68201DFFF70BF894F82430D1
:101FF00013F0040F07D123F0010384F82430236A7F
:102000002046984770BD324629462046FFF7D0FF4C
:10201000F5E700BF9C05002008B505E0DB684FF040
:10202000FF311868FFF7D8FF054B1B681A68002AB4
:10203000F4D1044A106802490860136008BD00BF6B
:102040009C0500209805002038B50546FFF798FC50
:102050000446074B1B68834205D800232B60044BC2
:102060001C60204638BDFFF7D7FF01232B60F6E741
:102070008C05002070B582B006460C46FFF778FC50
:1020800001A8FFF7E1FF019B33BB0546E4B9B0426D
:1020900013D22246711B124B1868FFF7F7F9FFF7AE
:1020A00037FDD8B94FF0E0234FF08052C3F8042D2C
:1020B000BFF34F8FBFF36F8F10E0FFF729FD294665
:1020C0003046FFF789FF09E0064A126812680AB92C
:1020D0000124DEE71C46DCE7FFF71AFD02B070BD05
:1020E000940500209805002030B585B000230193A9
:1020F00002930393002201A9354B1868FFF77EF87D
:10210000002862D0019B002BF4DB039C636913B1B0
:10211000201DFEF776FF6846FFF796FF0546019BF8
:10212000013B082BE6D8DFE803F005052930490517
:102130000529300094F8243043F0010384F824305A
:10214000029BA169024619442046FFF70DFF0028B3
:10215000D0D094F8243013F0040F07D123F00103FA
:1021600084F82430236A20469847C3E7A3692A46A7
:10217000029919442046FFF71BFFF3E794F8243037
:1021800023F0010384F82430B4E794F8243043F0BA
:10219000010384F824300299A16131B1034602465B
:1021A00001442046FFF7E0FEA4E74FF0500383F31D
:1021B0001188BFF36F8FBFF34F8FFEE794F8243081
:1021C00023F0010384F8243094E705B030BD00BF4C
:1021D0009405002000B583B001A8FFF7B5FE019972
:1021E000FFF748FFFFF780FFF6E7000030B583B048
:1021F00000F000F9114B1B681BB100F01DF903B092
:1022000030BD0F4D2846FEF7D5FE0E4C2046FEF79A
:10221000D1FE0D4B1D600D4B1C60002300930C4B39
:102220000C4A0C210A20FEF7B7FF044B1860002867
:10223000E3D00949FFF7FAF8DFE700BF9405002073
:10224000B4050020A00500209C0500209805002072
:10225000CC040020140500209828000810B588B090
:10226000FFF7C4FF124B1B68CBB100240594069402
:1022700007AA06A905A800F023FA059B0293069B6E
:102280000193022300932346079A0A490A48FFF75D
:10229000EFFA0A4B186010B1012008B010BD4FF0E2
:1022A000500383F31188BFF36F8FBFF34F8FFEE7A7
:1022B00094050020A0280008D521000890050020E2
:1022C00082B0002301930D4B1B68B3F1FF3F08D090
:1022D0004FF0500383F31188BFF36F8FBFF34F8F1D
:1022E000FEE74FF0500383F31188BFF36F8FBFF306
:1022F0004F8F019B002BFCD002B0704710000020D4
:10230000074B19680868B0E8F04F80F30988BFF3FD
:102310006F8F4FF0000080F311887047AFF300809B
:10232000C804002008480068006880F308884FF05F
:10233000000080F3148862B661B6BFF34F8FBFF31D
:102340006F8F00DF00BF000008ED00E0000000001C
:10235000EFF30980BFF36F8F154B1A681EF0100F53
:1023600008BF20ED108A20E9F04F10602DE9090028
:102370004FF0500080F31188BFF34F8FBFF36F8F82
:10238000FFF772FC4FF0000080F3118809BC196858
:102390000868B0E8F04F1EF0100F08BFB0EC108ACC
:1023A00080F30988BFF36F8F704700BFAFF30080E1
:1023B000C8040020DFF80C00016841F470010160DE
:1023C0007047000088ED00E04FF0807340F8043C57
:1023D00021F0010140F8081C054B40F80C3C40F886
:1023E000202C6FF0020340F8243C4438704700BFB3
:1023F000C12200084FF0500383F31188BFF36F8FA1
:10240000BFF34F8F0B4A136801331360012B00D0C9
:1024100070474FF0E023D3F8043D13F0FF0FF7D0DF
:102420004FF0500383F31188BFF36F8FBFF34F8FCB
:10243000FEE700BF10000020094B1B6843B94FF0B6
:10244000500383F31188BFF36F8FBFF34F8FFEE705
:10245000013B034A13600BB983F31188704700BF37
:102460001000002008B54FF0500383F31188BFF32C
:102470006F8FBFF34F8FFFF78FFA28B14FF0E02334
:102480004FF08052C3F8042D002383F3118808BD58
:102490004FF0E022002313619361054B1B6805494F
:1024A000A1FB03139B09013B536107231361704791
:1024B00008000020D34D62104FF0E023D3F8002D28
:1024C0005A4B9A4217D04FF0E023D3F8002D584BC7
:1024D0009A4219D04FF0E023D3F8083DD96A554A03
:1024E00091421AD04FF0500383F31188BFF36F8FDE
:1024F000BFF34F8FFEE74FF0500383F31188BFF314
:102500006F8FBFF34F8FFEE74FF0500383F31188B7
:10251000BFF36F8FBFF34F8FFEE79A6B464B9A4224
:1025200008D04FF0500383F31188BFF36F8FBFF3D0
:102530004F8FFEE730B583B0002301933F4B1A78ED
:10254000D2B28DF80220FF221A701B78DBB28DF810
:1025500003309DF8033003F05003394A137043B938
:102560004FF0500383F31188BFF36F8FBFF34F8F8A
:10257000FEE79DF80330DB4313F0500F08D04FF017
:10258000500383F31188BFF36F8FBFF34F8FFEE7C4
:102590009DF8033013F0800F09D0019B01330193A4
:1025A0009DF803305B00DBB28DF80330F0E7019B50
:1025B000082B36D0019BC3F10703224A1360214A3E
:1025C00013681B02136003F4E06313609DF802308C
:1025D000DBB21A4A13704FF0E024D4F8203D43F4E4
:1025E0007F03C4F8203DD4F8203D43F07F43C4F876
:1025F000203D0025C4F81C5DFFF74AFF124B1D600B
:10260000FFF7D8FED4F8343F43F04043C4F8343FDA
:10261000FFF788FEFFF728FBFFF752FE284603B0BE
:1026200030BD084B00221A60C9E700BF71C20F41DC
:1026300070C20F41012300085123000800E400E0AC
:10264000CC050020C805002010000020EFF3058312
:102650000F2B0FD9114A9B5CDBB2114A12789A42B8
:1026600008D94FF0500383F31188BFF36F8FBFF386
:102670004F8FFEE74FF0E023D3F80C3D03F4E06307
:10268000084A1268934208D94FF0500383F3118827
:10269000BFF36F8FBFF34F8FFEE77047F0E300E0AB
:1026A000CC050020C8050020034B0360034B0B60E2
:1026B00080231360704700BF240C0020240A0020F0
:1026C000034B0360034B0B604FF480731360704740
:1026D000D0090020D005002010B58AB00446202281
:1026E000002102A800F0B2F8002301932268104BE9
:1026F0009A420DD0019B4BB14FF0E0234FF0805236
:10270000C3F8042DBFF34F8FBFF36F8F0AB010BD16
:1027100001AA02A9074B1868FEF71FFE0128E9D19C
:102720006B4608AA02A92046FDF774FEE2E700BF47
:1027300000640040780C002008B5FFF7CDFF08BD0D
:1027400008B5FFF7C9FF08BD08B5FFF7C5FF08BD0D
:1027500010B58AB004462422002101A800F076F8C2
:1027600008AB01AA00212046FDF7C9FE0028F7D0DA
:102770000AB010BD08B5024B1868FDF77EFF08BD12
:102780001400002008B5024B1868FDF776FF08BD5D
:1027900014000020DFF834D0FEF784FB0C480D490C
:1027A0000D4A002302E0D458C4500433C4188C42AC
:1027B000F9D30A4A0A4C002301E013600432A24212
:1027C000FBD300F011F8FDF7E3FDFEE700C00020A9
:1027D0000000002040000020B82800084000002031
:1027E0007C0C0020FEE7000070B50D4D0D4C641B05
:1027F000A4100026A64209D10B4D0C4C00F02EF877
:10280000641BA4100026A64205D170BD55F8043BF8
:1028100098470136EEE755F8043B98470136F2E752
:10282000A8280008A8280008A8280008AC28000844
:102830000A44914200F1FF3300D1704710B511F8FE
:10284000014B03F8014F9142F9D110BD02440346F8
:10285000934200D1704703F8011BF9E7F8B500BFB8
:10286000F8BC08BC9E467047F8B500BFF8BC08BC71
:082870009E46704700000000C5
:10287800636F6E746163746F72207461736B0000B0
:10288800000000000102030449444C450000000018
:10289800546D725100000000546D7220537663002D
:0828A800F90100080000000026
:0828B000D10100080000000046
:1028B800010000001000000000093D0006000000B3
:1028C800AAAAAAAA1800002000640040000000007C
:1028D80000000000000000000000000000000000F0
:1028E80000000000000000000000000000000000E0
:040000050800279533
:00000001FF
